S01E0000547261666669634C6967687477697468455F494E54302E73726563D4
S11300000C945A000C946E000C946C000C946C00CC
S11300100C946C000C946C000C946C000C946C00AC
S11300200C946C000C946C000C946C000C94FD000B
S11300300C946C000C946C000C946C000C946C008C
S11300400C946C000C946C000C946C000C946C007C
S11300500C946C000C946C000C946C000C946C006C
S11300600C946C000C946C000C946C000C946C005C
S11300700C946C000C946C000C946C000C946C004C
S11300800C946C000C946C000C946C000C946C003C
S11300900C946C000C946C000C946C000C946C002C
S11300A00C946C000C946C000C946C000C946C001C
S11300B00C946C0011241FBECFEFD8E0DEBFCDBF7F
S11300C021E0A0E0B1E001C01D92A330B207E1F746
S11300D00E948F000C9414010C9400001F920F9244
S11300E00FB60F9211248F9381E0809300018F91BA
S11300F00F900FBE0F901F90189591E0811101C0D1
S113010090E0662311F082E001C080E0982B442344
S113011011F084E001C080E0982B95B9089584B172
S1130120876084B9E9E6F0E08081826080838DB3E2
S113013081608DBB8BB184608BB90E94DB0040E091
S113014060E081E00E947D0080E197E20E94F1007E
S113015080910001882361F040E060E081E00E942A
S11301607D0080E197E20E94F10010920001E7CF48
S113017040E061E080E00E947D0088EB9BE00E940B
S1130180F10080910001882361F040E060E081E0AB
S11301900E947D0080E197E20E94F100109200012C
S11301A0CECF41E060E080E00E947D0080E197E2F4
S11301B00E94F100C4CFE1E8F0E080818B6080838D
S11301C089EF90E09093890080938800EFE6F0E057
S11301D080818260808310920201109201017894E0
S11301E008951092020110920101209101013091B1
S11301F0020128173907C8F308951F920F920FB60A
S11302000F9211248F939F93809101019091020189
S1130210019690930201809301019F918F910F9019
S10F02200FBE0F901F901895F894FFCFAC
S9030000FC
