:100000000C9434000C943E000C943E000C943E0082
:100010000C943E000C943E000C943E000C943E0068
:100020000C943E000C943E000C943E000C943E0058
:100030000C943E000C943E000C943E000C943E0048
:100040000C943E000C943E000C943E000C943E0038
:100050000C943E000C943E000C943E000C943E0028
:100060000C943E000C943E0011241FBECFEFD8E04C
:10007000DEBFCDBF0E9446000C9474000C940000BB
:1000800095B1907F8F70892B85B9089584B18F6069
:1000900084B98AB18B7F8AB98BB184608BB980E0D7
:1000A0000E944000C0E04A99FECF2FEF86E791E022
:1000B000215080409040E1F700C000004A99F3CF02
:1000C000CF3010F4CF5F01C0C0E08C2F0E94400001
:1000D0004A9BFECF2FEF86E791E021508040904071
:0C00E000E1F700C00000DFCFF894FFCF74
:00000001FF
