:100000000C9434000C943E000C943E000C943E0082
:100010000C943E000C943E000C943E000C943E0068
:100020000C943E000C943E000C943E000C943E0058
:100030000C943E000C943E000C943E000C943E0048
:100040000C943E000C943E000C943E000C943E0038
:100050000C943E000C943E000C943E000C943E0028
:100060000C943E000C943E0011241FBECFEFD8E04C
:10007000DEBFCDBF0E948F000C94FB010C940000EA
:1000800080E480937C0086E880937A000895ECE712
:10009000F0E09081907F8F70892B8083EAE7F0E019
:1000A00080818064808380917A0086FDFCCF80917E
:1000B000780090917900089580E00E944700BC018B
:1000C00080E090E00E94DC0023E23BED49EF5EE33C
:1000D0000E943D010895CF92DF92EF92FF926B0153
:1000E0007C0120E030E048EC51E40E94D7008823F6
:1000F00064F020E030E04CE052E4C701B6010E9419
:10010000D700882324F482EB03C08CE401C08FEF76
:100110000E94D500FF90EF90DF90CF9008950E944D
:1001200040000E94CC008AB18B7F8AB98BB1846079
:100130008BB9C1E04A9920C02FEF86E791E02150AA
:1001400080409040E1F700C000004A9915C081E06E
:10015000C11180E0D82FCC2319F080E00E94D50097
:100160004A9BFECF2FEF86E791E0215080409040E0
:10017000E1F700C00000CD2FCC2321F00E945C00ED
:100180000E946B002FEF81EE94E021508040904060
:10019000E1F700C00000CECF8AB180648AB983E85D
:1001A00084BD82E085BD17BC089587BD08950E9477
:1001B000190108F481E00895E89409C097FB3EF422
:1001C00090958095709561957F4F8F4F9F4F9923A4
:1001D000A9F0F92F96E9BB279395F6958795779522
:1001E0006795B795F111F8CFFAF4BB0F11F460FFE2
:1001F0001BC06F5F7F4F8F4F9F4F16C0882311F03A
:1002000096E911C0772321F09EE8872F762F05C04D
:10021000662371F096E8862F70E060E02AF09A95E8
:10022000660F771F881FDAF7880F9695879597F9DD
:100230000895990F0008550FAA0BE0E8FEEF161677
:100240001706E807F907C0F012161306E407F507CA
:1002500098F0621B730B840B950B39F40A2661F03E
:10026000232B242B252B21F408950A2609F4A140E1
:10027000A6958FEF811D811D08950E9450010C9459
:10028000C1010E94B30138F00E94BA0120F0952309
:1002900011F00C94AA010C94B00111240C94F501F6
:1002A0000E94D20170F3959FC1F3950F50E0551F46
:1002B000629FF001729FBB27F00DB11D639FAA27BB
:1002C000F00DB11DAA1F649F6627B00DA11D661F0A
:1002D000829F2227B00DA11D621F739FB00DA11D2B
:1002E000621F839FA00D611D221F749F3327A00DE5
:1002F000611D231F849F600D211D822F762F6A2F81
:1003000011249F5750409AF0F1F088234AF0EE0FE5
:10031000FF1FBB1F661F771F881F91505040A9F712
:100320009E3F510580F00C94AA010C94F5015F3FAB
:10033000E4F3983ED4F3869577956795B795F7954E
:10034000E7959F5FC1F7FE2B880F911D96958795C6
:1003500097F9089597F99F6780E870E060E0089545
:100360009FEF80EC089500240A94161617061806CD
:100370000906089500240A941216130614060506A9
:100380000895092E0394000C11F4882352F0BB0F3A
:1003900040F4BF2B11F460FF04C06F5F7F4F8F4F9D
:1003A0009F4F089557FD9058440F551F59F05F3FD8
:1003B00071F04795880F97FB991F61F09F3F79F087
:1003C00087950895121613061406551FF2CF469509
:1003D000F1DF08C0161617061806991FF1CF86958B
:1003E0007105610508940895E894BB27662777276F
:0A03F000CB0197F90895F894FFCFB0
:00000001FF
