S01D000031325F6C6364313678325F3964696769745F6170702E73726563B8
S11300000C9434000C9446000C9446000C94460066
S11300100C9446000C9446000C9446000C94460044
S11300200C9446000C9446000C9446000C94770102
S11300300C9446000C9446000C9446000C94460024
S11300400C9446000C9446000C9446000C94460014
S11300500C9446000C9446000C9446000C94460004
S11300600C9446000C94460011241FBECFEFD8E038
S1130070DEBFCDBF21E0A0E0B1E001C01D92A230FF
S1130080B207E1F70E94FC000C94B0010C9400004C
S113009095B1907C8F70892B85B985B1826085B9C3
S11300A0000085B18D7F85B981E28A95F1F7000062
S11300B00895CF93C82F662321F085B1816085B957
S11300C003C085B18E7F85B98C2F82958F700E9475
S11300D048008C2F0E944800CF91089560E081E091
S11300E00E94590083EF91E00197F1F700C00000EE
S11300F0089584B18F6384B983ED90E30197F1F798
S113010000C0000085B18E7F85B983E00E9448005D
S113011081EE94E00197F1F700C0000083E00E94B3
S1130120480092E39A95F1F783E00E94480082E048
S11301300E94480060E088E20E94590060E08CE080
S11301400E94590060E086E00E9459000E946E00FF
S11301500895811180E4860F60E080680E94590050
S11301600895CF93DF93EC0104C0219661E00E94CF
S1130170590088818111F9CFDF91CF9108950F93B0
S11301801F93CF93DF93CDB7DEB72A970FB6F894BA
S1130190DEBF0FBECDBF042F1FEF140F15C02AE022
S11301A030E040E050E00E948E01E1E0F0E0EC0F2E
S11301B0FD1FE10FF11D17FDFA95605D6083622F4D
S11301C0732F842F952F115011234CF7E1E0F0E0A9
S11301D0EC0FFD1FE00FF11D1082CE0101960E946D
S11301E0B1002A960FB6F894DEBF0FBECDBFDF91E3
S11301F0CF911F910F9108950E9479000E9461018F
S11302008AB18B7F8AB98BB184608BB960E080E05E
S11302100E94A90049E060E070E0CB010E94BF00A9
S1130220C0E0D0E080E0C12CD12C76014A9913C003
S11302308111FCCF2FEF36E791E021503040904000
S1130240E1F700C000004A99F1CFC0910001D091BC
S1130250010181E0EBCF882349F32FEF36E791E0EA
S1130260215030409040E1F700C000004A9BDECFAF
S113027080910001909101018C1B9D0B803D974062
S113028070F43FEFC31AD30AE30AF30AC1148AECE9
S1130290D8068AE9E8068BE3F80628F407C0C12CDF
S11302A0D12C760103C0C12CD12C760160E080E012
S11302B00E94A90049E0C701B6010E94BF0080E086
S11302C0B5CFE1E8F0E080818B60808389EF90E036
S11302D09093890080938800EFE6F0E0808182604B
S11302E080831092010110920001789408951F9266
S11302F00F920FB60F9211248F939F938091000158
S113030090910101019690930101809300019F91C6
S11303108F910F900FBE0F901F901895A1E21A2E87
S1130320AA1BBB1BFD010DC0AA1FBB1FEE1FFF1F95
S1130330A217B307E407F50720F0A21BB30BE40BE5
S1130340F50B661F771F881F991F1A9469F760952C
S11303507095809590959B01AC01BD01CF010895E6
S1070360F894FFCF3B
S9030000FC
