:100000000C9434000C9449000C9449000C94490061
:100010000C9449000C9449000C9449000C9449003C
:100020000C9449000C9449000C9449000C9449002C
:100030000C9449000C9449000C9449000C9449001C
:100040000C9449000C9449000C9449000C9449000C
:100050000C9449000C9449000C9449000C944900FC
:100060000C9449000C94490011241FBECFEFD8E036
:10007000DEBFCDBF11E0A0E0B1E0E0E2F3E002C0FE
:1000800005900D92AC35B107D9F70E944C010C9444
:100090008E010C9400009BB19F70282F207F922B23
:1000A0009BB995B19E7F95B995B1926095B935E0B0
:1000B0003A95F1F7000095B19D7F95B9EFE1F3E036
:1000C0003197F1F700C000002BB1F0E18F9FC00124
:1000D0001124922F9F70892B8BB985B1826085B9CD
:1000E00035E03A95F1F7000085B18D7F85B98FE352
:1000F0009FE10197F1F700C0000008958AB1806F79
:100100008AB984B1816084B984B1826084B92FEFE7
:1001100089EF90E0215080409040E1F700C000005E
:1001200083E30E944B0082E30E944B0088E20E941E
:100130004B008CE00E944B0086E00E944B0081E067
:100140000E944B008FE39FE10197F1F700C0000090
:1001500008959BB19F70282F207F922B9BB995B15A
:10016000916095B995B1926095B935E03A95F1F7FE
:10017000000095B19D7F95B9EFE1F3E03197F1F77C
:1001800000C000002BB1F0E18F9FC0011124922F1D
:100190009F70892B8BB985B1826085B935E03A951E
:1001A000F1F7000085B18D7F85B98FE39FE101975D
:1001B000F1F700C000000895CF93DF93EC0103C076
:1001C00021960E94A90088818111FACFDF91CF91F9
:1001D0000895CF93DF9300D0CDB7DEB790E8998331
:1001E00090EC9A83E62FF0E0319721E030E02C0F7D
:1001F0003D1FE20FF31F9081890F81500E944B0039
:100200008FE891E00197F1F700C000000F900F9088
:10021000DF91CF910895EAE7F0E0808187688083DD
:10022000ECE7F0E08081806480838081807F808340
:100230000895EAE7F0E080818064808380917A000D
:1002400086FDFCCF80917800909179009C0121502F
:10025000310921333105B0F02055310925343105FC
:1002600098F0225D31092B33310580F02E5B310986
:100270002534310568F08B5892408336910550F44F
:1002800085E0089581E0089582E0089583E008956F
:1002900084E0089580E008950E940B010E947E0092
:1002A00080E091E00E94DC0062E081E00E94E900D1
:1002B0008CE091E00E94DC000E941901C82F62E0EE
:1002C00081E00E94E900C330A9F028F4C13041F078
:1002D000C23059F01EC0C43091F0C530A9F019C029
:1002E0008EE091E00E94DC00E7CF8BE191E00E947C
:1002F000DC00E2CF88E291E00E94DC00DDCF85E304
:1003000091E00E94DC00D8CF82E491E00E94DC0002
:10031000D3CF8FE491E00E94DC00CECFF894FFCFE2
:100320004869202A6F2A2D2D2A6F2A002100526940
:100330006768742020202020202000557020202075
:100340002020202020202000446F776E20202020B5
:1003500020202020004C65667420202020202020B2
:10036000200053656C656374202020202020004EFF
:0C0370006F204B65792020202020200009
:00000001FF
