:100000000C9434000C9449000C9449000C94490061
:100010000C9449000C9449000C9449000C9449003C
:100020000C9449000C9449000C9449000C9449002C
:100030000C9449000C9449000C9449000C9449001C
:100040000C9449000C9449000C9449000C9449000C
:100050000C9449000C9449000C9449000C944900FC
:100060000C9449000C94490011241FBECFEFD8E036
:10007000DEBFCDBF11E0A0E0B1E0EAE1F9E002C0EF
:1000800005900D92A235B107D9F70E947A000C9421
:100090008B040C940000CF93DF93EC0168E271E0D5
:1000A0000E949001892BE1F066E371E0CE010E948D
:1000B0009001892BB9F020E005C090E0C0970A9725
:1000C00098F42F5FFE01E20FF11D80818111F5CFC1
:1000D000CE010E9472018536910540F483E007C08D
:1000E00081E005C082E003C080E001C080E0DF91D4
:1000F000CF910895CF93DF93CDB7DEB7E0970FB6DA
:10010000F894DEBF0FBECDBF60E875E280E090E0FE
:100110000E9401010E94F60080E091E00E943101FE
:1001200010E001C010E00E941D018A3019F08D30EE
:1001300009F050C01123B9F3E1E0F0E0EC0FFD1F2E
:10014000E10FF11D1082CE0101960E944B0081301B
:1001500049F48FEF0E94FF008DE191E00E94310190
:1001600010E0E1CF823049F480E00E94FF008BE292
:1001700091E00E94310110E0D6CF833099F68E01D4
:100180000F5F1F4FC8010E9472012FEF30E0DC01AA
:100190000E945C0124E630E040E050E00E943A0119
:1001A000822F0E94FF001F930F938AE391E09F9399
:1001B0008F93005F1F4F1F930F930E94A101C801EF
:1001C0000E9431010F900F900F900F900F900F90A1
:1001D00010E0A9CF1F3008F0A6CFE1E0F0E0EC0F6F
:1001E000FD1FE10FF11D80831F5F9DCF8AB18064E9
:1001F0008AB983E884BD82E085BD17BC089587BDB8
:1002000008959B01AC0160E472E48FE090E00E94ED
:100210003A01215031093093C5002093C40088E190
:100220008093C10086E08093C20008959091C00041
:1002300095FFFCCF8093C60008958091C00088236D
:10024000E4F78091C6000895CF93DF93EC0103C0DB
:1002500021960E94160188818111FACFDF91CF91FA
:1002600008950E9424018DE00E9416018AE00E94F8
:1002700016010895A1E21A2EAA1BBB1BFD010DC099
:10028000AA1FBB1FEE1FFF1FA217B307E407F50746
:1002900020F0A21BB30BE40BF50B661F771F881F22
:1002A000991F1A9469F760957095809590959B01B8
:1002B000AC01BD01CF0108950E946301B7FF08950D
:1002C000821B930B0895A29FB001B39FC001A39F0F
:1002D000700D811D1124911DB29F700D811D11247F
:1002E000911D0895FC0188279927E89421912032D7
:1002F000E9F3293010F02E30C8F32B3241F02D32C3
:1003000039F4689404C00E949901820F911D2191D3
:1003100020532A30C0F31EF4909581959F4F089585
:10032000FB01DC018D91019080190110D9F3990B2B
:1003300008957AE0979F902D879F802D910D11242D
:100340000895AEE0B0E0E7EAF1E00C9462040D89B4
:100350001E8986E08C831A8309838FEF9FE79E8333
:100360008D83AE01475E5F4F6F89788DCE01019618
:100370000E94C301EF81F885E00FF11F10822E96D5
:10038000E4E00C947E04ABE0B0E0E9ECF1E00C9426
:1003900054046C017B018A01FC011782168283815F
:1003A00081FFCCC1CE0101963C01F6019381F7019A
:1003B00093FD859193FF81917F01882309F4BAC150
:1003C000853239F493FD859193FF81917F018532C8
:1003D00029F4B60190E00E94BA03E7CF912C212CBA
:1003E000312CFFE1F315D8F08B3279F038F48032FC
:1003F00079F08332A1F4232D20611DC08D3261F08C
:10040000803369F4232D216016C0832D8260382E3D
:10041000E32DE4603E2E2AC0F32DF8601DC037FCAA
:100420002DC020ED280F2A3040F08E32B9F436FC72
:1004300081C1232D2064322E19C036FE06C08AE009
:10044000989E200D1124922E11C0EAE02E9E200DC0
:100450001124222EF32DF0623F2E08C08C3621F499
:10046000832D8068382E02C0883641F4F70193FD51
:10047000859193FF81917F018111B3CF982F9F7D4B
:100480009554933028F40C5F1F4F9FE399830DC060
:10049000833631F0833771F0833509F059C021C0BC
:1004A000F801808189830E5F1F4F88248394912CEB
:1004B000530113C02801F2E04F0E511CF801A08037
:1004C000B18036FE03C0692D70E002C06FEF7FEF90
:1004D000C5010E94AF034C018201F32DFF773F2E2F
:1004E00016C0280122E0420E511CF801A080B18004
:1004F00036FE03C0692D70E002C06FEF7FEFC501CB
:100500000E94A4034C01F32DF0683F2E820133FCBE
:100510001BC0822D90E088169906B0F4B60180E2E7
:1005200090E00E94BA032A94F4CFF50137FC85913C
:1005300037FE81915F01B60190E00E94BA0321105D
:100540002A9421E0821A91088114910471F7E8C07D
:10055000843611F0893641F5F80137FE07C0608115
:100560007181828193810C5F1F4F08C0608171810E
:10057000072E000C880B990B0E5F1F4FF32DFF7693
:100580003F2E97FF09C090958095709561957F4F9C
:100590008F4F9F4FF0683F2E2AE030E0A3010E946A
:1005A000F603882E861845C0853731F4232D2F7E1B
:1005B000B22E2AE030E025C0932D997FB92E8F36D8
:1005C000C1F018F4883579F0B5C0803719F0883754
:1005D00021F0B0C0E92FE061BE2EB4FE0DC0FB2DAE
:1005E000F460BF2E09C034FE0AC0292F2660B22E47
:1005F00006C028E030E005C020E130E002C020E184
:1006000032E0F801B7FE07C0608171818281938179
:100610000C5F1F4F06C06081718180E090E00E5F2B
:100620001F4FA3010E94F603882E8618FB2DFF772B
:100630003F2E36FE0DC0232D2E7FA22E891458F496
:1006400034FE0BC032FC09C0832D8E7EA82E05C05F
:10065000B82CA32C03C0B82C01C0B92CA4FE0FC029
:10066000FE01E80DF11D8081803321F49A2D997EE1
:10067000A92E09C0A2FE06C0B394B39404C08A2D6B
:10068000867809F0B394A3FC11C0A0FE06C0B21492
:1006900088F4280C922C9B180EC0B21460F4B6019A
:1006A00080E290E00E94BA03B394F7CFB21418F43A
:1006B0002B1802C0982C212CA4FE10C0B60180E398
:1006C00090E00E94BA03A2FE17C0A1FC03C088E715
:1006D00090E002C088E590E0B6010CC08A2D8678D3
:1006E00059F0A1FE02C08BE201C080E2A7FC8DE2BE
:1006F000B60190E00E94BA03891438F4B60180E391
:1007000090E00E94BA039A94F7CF8A94F301E80D1F
:10071000F11D8081B60190E00E94BA038110F5CFEF
:10072000222009F442CEB60180E290E00E94BA0392
:100730002A94F6CFF6018681978102C08FEF9FEF52
:100740002B96E2E10C947004FC010590615070401E
:100750000110D8F7809590958E0F9F1F0895FC018A
:100760006150704001900110D8F7809590958E0FE0
:100770009F1F08950F931F93CF93DF93FB01238156
:1007800021FD03C08FEF9FEF2CC022FF16C04681D2
:100790005781248135814217530744F4A081B181E8
:1007A0009D012F5F3F4F318320838C9326813781BA
:1007B0002F5F3F4F3783268314C08B01EC01FB0171
:1007C0000084F185E02D0995892BE1F6D801169674
:1007D0008D919C911797019617969C938E931697DF
:1007E000CE01DF91CF911F910F910895FA01AA27B1
:1007F000283051F1203181F1E8946F936E7F6E5F64
:100800007F4F8F4F9F4FAF4FB1E03ED0B4E03CD011
:10081000670F781F891F9A1FA11D680F791F8A1FF4
:10082000911DA11D6A0F711D811D911DA11D20D05B
:1008300009F468943F912AE0269F11243019305D15
:100840003193DEF6CF010895462F4770405D419306
:10085000B3E00FD0C9F7F6CF462F4F70405D4A3353
:1008600018F0495D31FD4052419302D0A9F7EACF1B
:10087000B4E0A6959795879577956795BA95C9F74A
:1008800000976105710508959B01AC010A2E06943D
:100890005795479537952795BA95C9F7620F731FF6
:1008A000841F951FA01D08952F923F924F925F9233
:1008B0006F927F928F929F92AF92BF92CF92DF9270
:1008C000EF92FF920F931F93CF93DF93CDB7DEB7D5
:1008D000CA1BDB0B0FB6F894DEBF0FBECDBF099469
:1008E0002A88398848885F846E847D848C849B84C0
:1008F000AA84B984C884DF80EE80FD800C811B81CE
:10090000AA81B981CE0FD11D0FB6F894DEBF0FBEFC
:0A091000CDBFED010895F894FFCF6C
:10091A0052656164792E2053656E64204F4E2C20F7
:10092A004F4646206F7220302D313030004C4544FE
:10093A00206973206E6F77204F4E004C4544206922
:10094A0073206E6F77204F4646004272696768745B
:10095A006E6573732073657420746F202573252563
:02096A0000008B
:00000001FF
