S00E000050574D4243422E737265635B
S11300000C9434000C943E000C943E000C943E007E
S11300100C943E000C943E000C943E000C943E0064
S11300200C943E000C943E000C943E000C943E0054
S11300300C943E000C943E000C943E000C943E0044
S11300400C943E000C943E000C943E000C943E0034
S11300500C943E000C943E000C943E000C943E0024
S11300600C943E000C943E0011241FBECFEFD8E048
S1130070DEBFCDBF0E9440000C948A000C940000A7
S1130080CF93DF9300D000D0CDB7DEB70E947F00BE
S11300908AB18B7F8AB98BB184608BB980E4898300
S11300A080E88A8380EC8B831C8280E40E94880031
S11300B010E04A99FECF2FEF86E791E0215080406F
S11300C09040E1F700C000004A99F3CF1F5F14305D
S11300D008F010E0E1E0F0E0EC0FFD1FE10FF11D8E
S11300E080810E9488004A9BFECF2FEF86E791E033
S11300F0215080409040E1F700C00000DACF8AB17F
S113010080648AB983E884BD82E085BD17BC089504
S10B011087BD0895F894FFCFA8
S9030000FC
