:100000000C9434000C943E000C943E000C943E0082
:100010000C943E000C943E000C943E000C943E0068
:100020000C943E000C943E000C943E000C943E0058
:100030000C943E000C943E000C943E000C943E0048
:100040000C943E000C943E000C943E000C943E0038
:100050000C943E000C943E000C943E000C943E0028
:100060000C943E000C943E0011241FBECFEFD8E04C
:10007000DEBFCDBF0E9451000C945C000C940000C8
:1000800020E030E009C016BC14BC84B5816084BD9A
:10009000A89BFECF2F5F3F4F243284EF380798F3A1
:1000A000089585B1806285B90E94400085B18F7D39
:0C00B00085B90E944000F5CFF894FFCF06
:00000001FF
