S01000003252474C454454672E73726563B9
S11300000C945A000C9464000C9464000C946400E6
S11300100C9464000C9464000C9464000C946400CC
S11300200C9464000C9464000C9464000C946400BC
S11300300C9464000C9464000C9464000C946400AC
S11300400C9464000C9464000C9464000C9464009C
S11300500C9464000C9464000C9464000C9464008C
S11300600C9464000C9464000C9464000C9464007C
S11300700C9464000C9464000C9464000C9464006C
S11300800C9464000C9464000C9464000C9464005C
S11300900C9464000C9464000C9464000C9464004C
S11300A00C9464000C9464000C9464000C9464003C
S11300B00C94640011241FBECFEFD8E0DEBFCDBF87
S11300C00E9466000C94A2000C94000084B183602A
S11300D084B98AB18B7F8AB98BB184608BB985B1BD
S11300E0816085B985B18D7F85B990E04A99FECF4D
S11300F02FEF39EF80E0215030408040E1F700C01D
S113010000004A99F3CF81E0911180E0911107C07A
S113011095B19E7F95B995B1926095B906C095B198
S1130120916095B995B19D7F95B94A9BFECF9FEF9C
S113013029EF30E0915020403040E1F700C000004A
S10B0140982FD4CFF894FFCFEF
S9030000FC
