:100000000C94B1000C94CE000C94CE000C94CE0055
:100010000C94CE000C94CE000C94CE000C94CE0028
:100020000C94CE000C94CE000C94CE000C94CE0018
:100030000C94CE000C94CE000C94CE000C94CE0008
:100040000C94CE000C94CE000C94CE000C94CE00F8
:100050000C94CE000C94CE000C94CE000C94CE00E8
:100060000C94CE000C94CE0000407A10F35A00A0FD
:10007000724E18090010A5D4E80000E87648170071
:1000800000E40B54020000CA9A3B000000E1F505B1
:10009000000080969800000040420F000000A086FB
:1000A00001000000102700000000E803000000002D
:1000B0006400000000000A000000000001000000D1
:1000C00000002C76D888DC674F0823DFC1DFAE59EB
:1000D000E1B1B796E5E3E453C63AE651997696E87E
:1000E000E6C28426EB898C9B62ED407C6FFCEFBC02
:1000F0009C9F40F2BAA56FA5F490055A2AF75C932D
:100100006B6CF9676DC11BFCE0E40D47FEF520E662
:10011000B500D0ED902E0300943577050080841E45
:10012000080000204E0A000000C80C333333330FA0
:10013000986E12831141EF8D2114893BE65516CF3D
:10014000FEE6DB18D1844B381BF77C1D901DA4BB49
:10015000E424203284725E228100C9F124ECA1E5FE
:100160003D2711241FBECFEFD8E0DEBFCDBF12E088
:10017000A0E0B1E0EAE4F2E202C005900D92A633FD
:10018000B107D9F722E0A6E3B2E001C01D92A43581
:10019000B207E1F70E94FA070C9423110C940000B7
:1001A0004F925F926F927F928F929F92AF92BF9287
:1001B000CF92DF92EF92FF926B017C01AB01BC0109
:1001C000689412F875956795579547951694D1F7E9
:1001D0004090500250905102612C712CD301C20109
:1001E000880F991FAA1FBB1F9A01AB01281B390B4F
:1001F0004A0B5B0BA0914E02B0914F020E94650A20
:100200004B015C01072E7BE0B594A79497948794EB
:100210007A95D1F7702DD701C601689413F8B5957A
:10022000A795979587951694D1F7BC01CD016419D0
:100230007509860997099B01AC010E944A0A9B0136
:10024000AC01012E1CE055954795379527951A95D9
:10025000D1F7102DA0914C02B0914D020E94650A79
:10026000DC01CB01072E7EE0B595A7959795879584
:100270007A95D1F7702D880D991DAA1DBB1D80930D
:10028000360290933702A0933802B09339026C0182
:100290007D01CC0CDD1CEE1CFF1CCC0CDD1CEE1C0F
:1002A000FF1C8C0D9D1DAE1DBF1D80589F4FAF4F75
:1002B000BF4F692F7A2F8B2F992787FD9A950E9420
:1002C000700920E030E048EC52E40E94F608FF900C
:1002D000EF90DF90CF90BF90AF909F908F907F90E6
:1002E0006F905F904F9008952F923F924F925F9240
:1002F0006F927F928F929F92AF92BF92CF92DF9236
:10030000EF92FF920F931F93CF93DF93CDB7DEB79A
:1003100066970FB6F894DEBF0FBECDBF6F87788BA0
:10032000898B9A8B8091360290913702A091380286
:10033000B09139026C017D01FF0CCC08DC2C7601F8
:10034000282F392F4A2F5B2F6C2D7C2D8C2D9C2D27
:10035000345F41405109610971098109910929837B
:100360003A83442E552E662E772E282E392EA22E15
:10037000B32EC42ED52EE62EF72E082F192F0E944D
:100380006D0A2B833C834D835E836F8378878987D7
:100390009A87B0904102A09040021B2D110F110BC3
:1003A000C12ED12EE12EF12E012F0E946D0A2B8736
:1003B0003C874D875E87862E972E8C8B9B8BB090CB
:1003C0004302A09042021B2D110F110BC12ED12E02
:1003D000E12EF12E012F29813A81442D552D662DD4
:1003E000772D822D932D0E946D0A01E10E949D0BB5
:1003F000A22EB32EC42ED52EE62EF72E082F192F9F
:100400002B853C854D855E85682D792D8C899B8952
:100410000E94D40B822E932E4C875B87B62FA72F7A
:10042000F82FE92F3091450220914402932F990F24
:10043000990B492F592F692F792F892F03E20E9499
:100440009D0BA22EB32EC42ED52EE62EF72E082FEE
:10045000192F282D392D4C855B856B2F7A2F8F2FE7
:100460009E2F0E94D40B2B873C874D875E876B8B1A
:100470007C8B8D8B9E8BB0904702A09046021B2DEB
:10048000110F110BC12ED12EE12EF12E012F2B8138
:100490003C814D815E816F81788589859A850E9436
:1004A0006D0A08E00E94B60B2B833C834D835E836C
:1004B000862E972E88879F83B0904902A09048028D
:1004C0001B2D110F110BC12ED12EE12EF12E012F5C
:1004D00029813A81442D552D662D772D822D932D1E
:1004E0000E946D0A0CE00E949D0BA22EB32EC42E1A
:1004F000D52EE62EF72E082F192F2B813C814D810A
:100500005E81682D792D88859F810E94D40B70585B
:100510008F4F9F4FE0914A02F0914B021F01AE2E88
:10052000B32CC12CD12CE12CF12C00E010E00E9466
:100530006D0A01E20E94B60B422E532E642E752ED8
:10054000862E972E8A839983A0E00E94E60B09F4F9
:1005500001C180E090E0A0E1B0E02F8538894989B1
:100560005A89821B930BA40BB50B6C017D01FF0C08
:10057000CC08DC2C7601282F392F4A2F5B2F6C2DCD
:100580007C2D8C2D9C2D0FE10E949D0BAB84BC8497
:10059000CD84DE84EB88FC880D891E890E94DD0BEA
:1005A0000F2EF5E3AF2EF02D0F2EFCE0BF2EF02D19
:1005B000C12CD12CE12CF12C00E010E00E946D0A3E
:1005C000A42CB52CC62CD72CE82CF92C0A81198127
:1005D0000E94C80A2C873B8749835A836B837C839C
:1005E0008D839E83F0913B02A0913A02EF2FEE0F94
:1005F000EE0B0DE00E94B60B222E332E442E552E0C
:10060000662E772E882E992EA22EB32EC42ED52E8E
:10061000E62EF72E082F192F2A2F3F2F4E2F5E2F51
:100620006E2F7E2F8E2F9E2F0E946D0AA22EB32E2C
:10063000C42ED52EE62EF72E082F192F222D332D5E
:10064000442D552D662D772D882D992D0E946D0AEC
:1006500009E10E94B60B522E432E342E252E6F83B5
:10066000788789879A87B0903D02A0903C021B2D25
:10067000110F110BC12ED12EE12EF12E012F2C8541
:100680003B8549815A816B817C818D819E810E944D
:100690006D0A03E10E94B60B622E732E842E952EF6
:1006A000B62FA72FF82FE92F2C853B8549815A813A
:1006B0006B817C818D819E81A52CB42CC32CD22C86
:1006C000EF80F88409851A850E94D40BA22EB32EE0
:1006D000C42ED52EE62EF72E082F192F262D372DB6
:1006E000482D592D6B2F7A2F8F2F9E2F0E94D40BC0
:1006F00008E00E94B60B822E932E4A835983B62FB0
:10070000A72FF82FE92F30913F0220913E02932F1F
:10071000990F990B492F592F692F792F892F04E0B1
:100720000E949D0BA22EB32EC42ED52EE62EF72EA0
:10073000082F192F282D392D4A8159816B2F7A2F97
:100740008F2F9E2F0E94D40B08E00E94B60B0E94B0
:10075000680903C060E070E0CB0166960FB6F894BC
:10076000DEBF0FBECDBFDF91CF911F910F91FF90E4
:10077000EF90DF90CF90BF90AF909F908F907F9041
:100780006F905F904F903F902F900895EF92FF925F
:100790000F931F93CF93DF93CDB7DEB7C859D1091D
:1007A0000FB6F894DEBF0FBECDBF28E1AE014F5F9C
:1007B0005F4F68E8809100010E948906882309F450
:1007C0009FC02A8130E0322F22279981292B209344
:1007D0005002309351026C8170E0762F66279B8126
:1007E000692B70934F0260934E02EE81F0E0FE2F72
:1007F000EE279D81E92BF0934D02E0934C02488552
:1008000050E0542F44279F81492B40934A02509334
:100810004B02AA85B0E0BA2FAA279985A92BB093DD
:100820004902A09348020C8510E0102F00279B85F9
:10083000092B1093470200934602EE84F12CFE2C04
:10084000EE249D85E92AF0924502E0924402E88870
:10085000F12CFE2CEE249F85E92AF0924302E092CF
:100860004202EA88F12CFE2CEE249989E92AF092C2
:100870004102E0924002EC88F12CFE2CEE249B8990
:10088000E92AF0923F02E0923E02EE88F12CFE2C23
:10089000EE249D89E92AF0923D02E0923C02E88C28
:1008A000F12CFE2CEE249F89E92AF0923B02E09283
:1008B0003A02F0905202FF2019F11F930F93BF9359
:1008C000AF935F934F93FF93EF937F936F933F9318
:1008D0002F9381E091E09F938F931F9280E88F93F5
:1008E0008E01075E1F4F1F930F930E94300CC801AB
:1008F0000E94E9080FB6F894DEBF0FBECDBF8F2D62
:10090000C856DF4F0FB6F894DEBF0FBECDBFDF91E4
:10091000CF911F910F91FF90EF9008952091520277
:1009200021110E94E9080895809352020895EF92E0
:10093000FF920F931F93CF93DF93CDB7DEB7AB97A3
:100940000FB6F894DEBF0FBECDBF182F0E94280649
:10095000198386E78A8387E78B8310E019C0E1E07B
:10096000F0E0EC0FFD1FE10FF11D008121E0AE0171
:100970004C5F5F4F60ED802F0E948906882339F01D
:100980008C81883521F40093000181E004C01F5F51
:10099000133028F380E0811108C0109253028BE2DB
:1009A00091E00E948E0410E03BC00E94C603182F05
:1009B000811107C0109253028EE391E00E948E04D1
:1009C0002FC040EA65EF809100010E94D60647E201
:1009D00064EF809100010E94D60681E0809353026B
:1009E000009152020023E1F0809100011F928F9349
:1009F00080E591E09F938F931F9288E28F937E0111
:100A000084E0E80EF11CFF92EF920E94300CC701C7
:100A10000E94E9080FB6F894DEBF0FBECDBF102FBD
:100A2000812FAB960FB6F894DEBF0FBECDBFDF911E
:100A3000CF911F910F91FF90EF9008952F923F92C9
:100A40004F925F926F927F928F929F92AF92BF92DE
:100A5000CF92DF92EF92FF921F93CF93DF93CDB7A8
:100A6000DEB7C654D1090FB6F894DEBF0FBECDBFB6
:100A700010915302112309F4D1C06B017C0126E0CF
:100A8000AE014F5F5F4F67EF809100010E948906C2
:100A9000182F882309F4C2C04980512C612C712C75
:100AA000B301A201032E3CE0440F551F661F771FC0
:100AB0003A95D1F7302D8A81482E512C612C712C1A
:100AC000440C551C661C771C440C551C661C771C7A
:100AD000440C551C661C771C440C551C661C771C6A
:100AE000442A552A662A772A8B8182958F70482A54
:100AF0008C8190E0A0E0B0E0AC01BD01032E3CE0B1
:100B0000440F551F661F771F3A95D1F7302D9D81F1
:100B1000892F90E0A0E0B0E0880F991FAA1FBB1FAB
:100B2000880F991FAA1FBB1F880F991FAA1FBB1FE1
:100B3000880F991FAA1FBB1F842B952BA62BB72BA1
:100B40002E8122952F704C015D01822A80915202E4
:100B50008823F9F07F926F925F924F92BF92AF928B
:100B60009F928F9281E691E09F938F931F9280E4F2
:100B70008F931E0187E0280E311C3F922F920E9416
:100B8000300CC1010E94E9080FB6F894DEBF0FBE19
:100B9000CDBF682D792D8A2D9B2D0E94D000F701A5
:100BA0006083718382839383642D752D862D972DA9
:100BB0000E947401A62FB72F462F572F682F792F29
:100BC000F6014083518362837383D0905202DD200B
:100BD00029F19F938F93BF93AF93F70183818F93F5
:100BE00082818F9381818F9380818F9385E791E0BC
:100BF0009F938F931F9280E48F937E01F7E0EF0E17
:100C0000F11CFF92EF920E94300CC7010E94E9088C
:100C10000FB6F894DEBF0FBECDBF1D2D812FCA5B6E
:100C2000DF4F0FB6F894DEBF0FBECDBFDF91CF917F
:100C30001F91FF90EF90DF90CF90BF90AF909F906B
:100C40008F907F906F905F904F903F902F9008957E
:100C50001092B9008DEF8093B800089594EA9093B4
:100C6000BC009091BC009923E4F79091B900987F63
:100C7000983011F09031C1F48093BB0094E89093C8
:100C8000BC009091BC009923E4F79091B900987F43
:100C9000282F217080FF02C0903441F4211108C038
:100CA000983141F481E0089580E0089580E008954E
:100CB00081E0089580E0089584E98093BC0083E09A
:100CC0008A95F1F7000008958093BB0084E8809333
:100CD000BC008091BC008823E4F79091B900987F14
:100CE00081E0983209F080E0089584EC8093BC00A4
:100CF0008091BC008823E4F78091BB00089584E8CC
:100D00008093BC008091BC008823E4F78091BB00F5
:100D10000895EF92FF920F931F93CF93DF93C82F05
:100D2000E62E8A01D22F880F0E942E06F82E8111FE
:100D300003C00E945C0632C08E2D0E946406F82E0D
:100D4000811103C00E945C0629C08C2F90E0880F9F
:100D5000991F81600E942E06F82E81111AC00E94F0
:100D60005C061CC02C2F30E08D2F90E001972817D7
:100D700039073CF40E947506F801EC0FF11D8083E1
:100D800006C00E947F06F801EC0FF11D8083CF5F43
:100D900001C0C0E0CD1730F30E945C068F2DDF91BB
:100DA000CF911F910F91FF90EF9008951F93CF93D4
:100DB000DF93D62F142F880F0E942E06C82F811183
:100DC00003C00E945C0614C08D2F0E946406C82FC9
:100DD000811103C00E945C060BC0812F0E94640633
:100DE000C82F811103C00E945C0602C00E945C06ED
:100DF0008C2FDF91CF911F9108958BB180648BB9B7
:100E000085E08A95F1F700008BB18F7B8BB98FE875
:100E100091E00197F1F700C00000089580FF04C041
:100E20009BB190629BB903C09BB19F7D9BB981FF31
:100E300004C09BB190619BB903C09BB19F7E9BB9DD
:100E400082FF04C09BB198609BB903C09BB1977FA0
:100E50009BB983FF04C08BB184608BB903C08BB195
:100E60008B7F8BB90E94FD060895CF93C82F8BB15D
:100E70008F778BB985E08A95F1F700008C2F8295EA
:100E80008F700E940E078C2F8F700E940E078FE3C9
:100E90009FE10197F1F700C00000CF910895811103
:100EA00080E4860F80680E9435070895CF93C82F8D
:100EB0008BB180688BB985E08A95F1F700008C2FA3
:100EC00082958F700E940E078C2F8F700E940E07E4
:100ED00087EC90E00197F1F700C00000CF910895F2
:100EE0008AB18C6F8AB98BB183708BB92FEF80E791
:100EF00092E0215080409040E1F700C000008BB1AB
:100F00008F778BB983E00E940E078FE19EE40197F3
:100F1000F1F700C0000083E00E940E078FE193E02C
:100F20000197F1F700C0000083E00E940E078FE1F7
:100F300093E00197F1F700C0000082E00E940E07E5
:100F40008FE193E00197F1F700C0000088E20E9472
:100F500035078CE00E94350786E00E94350781E066
:100F60000E9435078FE39FE10197F1F700C0000071
:100F700008950F931F93CF93DF93CDB7DEB761979B
:100F80000FB6F894DEBF0FBECDBF182F062FBA01E3
:100F900040E150E0CE0101960E94210C198A602F99
:100FA000812F0E944F078E010F5F1F4F04C00F5FFC
:100FB0001F4F0E945607F80180818111F8CFDE0192
:100FC0001196FD0101900020E9F731971E2F1A1BA1
:100FD00004C080E20E9456071F5F1031D0F3619673
:100FE0000FB6F894DEBF0FBECDBFDF91CF911F913A
:100FF0000F910895CF93DF93CDB7DEB7CA59D109CA
:101000000FB6F894DEBF0FBECDBF0E94D30888E8AC
:1010100091E00E94E9080E94700743EA51E060E015
:1010200080E00E94B90740EB51E060E081E00E945F
:10103000B90781E00E94940486E70E949704811119
:101040001AC088EB91E00E94E9084DEC51E060E0A5
:1010500080E00E94B9074EED51E060E081E00E941F
:10106000B9072FEF89E698E1215080409040E1F7E1
:1010700000C00000F6CF81E1E5E2F2E0DE01529629
:1010800001900D928A95E1F7C956DF4F18821982B7
:101090001A821B82C759D040CD56DF4F1882198261
:1010A0001A821B82C359D040BE016D567F4FCE01BC
:1010B00089569F4F0E941E05811114C08BEE91E04E
:1010C0000E94E90848EF51E060E080E00E94B90723
:1010D0002FEF89E698E1215080409040E1F700C071
:1010E0000000D2CF7E0123E2E20EF11CC956DF4F91
:1010F000688179818A819B81C759D040870121E02D
:1011000044E00E94010CCD56DF4F688179818A81CD
:101110009B81C359D04020E030E048EC52E40E946B
:10112000F6086E0123E3C20ED11C860121E046E0E1
:101130000E94010CDF92CF92FF92EF9284E092E046
:101140009F938F931F9281E18F93025311091F93F5
:101150000F930E94300CA80160E080E00E94B90764
:10116000AE014E5E5F4F60E081E00E94B907DF9202
:10117000CF92FF92EF9282E192E09F938F931F9222
:1011800080E58F937E0183E4E80EF11CFF92EF92DD
:101190000E94300CC7010E94E9080FB6F894DEBF28
:1011A0000FBECDBF71CF82E08093C0001092C5000A
:1011B00080E18093C40088E08093C10086E0809342
:1011C000C20008959091C00095FFFCCF8093C600A7
:1011D0000895CF93DF93EC0103C021960E94E208AB
:1011E00088818111FACFDF91CF9108950E940A0979
:1011F0000C94100A0E94090A58F00E94020A40F05A
:1012000029F45F3F29F00C94E90951110C94440A28
:101210000C94EF090E94210A68F39923B1F3552336
:1012200091F3951B550BBB27AA27621773078407F9
:1012300038F09F5F5F4F220F331F441FAA1FA9F38F
:1012400035D00E2E3AF0E0E832D091505040E6957D
:10125000001CCAF72BD0FE2F29D0660F771F881FDE
:10126000BB1F261737074807AB07B0E809F0BB0BD1
:10127000802DBF01FF2793585F4F3AF09E3F5105E5
:1012800078F00C94E9090C94440A5F3FE4F3983E2B
:10129000D4F3869577956795B795F7959F5FC9F7CE
:1012A000880F911D9695879597F90895E1E0660F4F
:1012B000771F881FBB1F621773078407BA0720F0C8
:1012C000621B730B840BBA0BEE1F88F7E095089531
:1012D00097FB16F40E94F2090C94AC09E89409C03B
:1012E00097FB3EF490958095709561957F4F8F4F59
:1012F0009F4F9923A9F0F92F96E9BB279395F6956F
:10130000879577956795B795F111F8CFFAF4BB0FEC
:1013100011F460FF1BC06F5F7F4F8F4F9F4F16C050
:10132000882311F096E911C0772321F09EE8872FDA
:10133000762F05C0662371F096E8862F70E060E096
:101340002AF09A95660F771F881FDAF7880F96950F
:10135000879597F90895E894F92F96EBFF2381F08C
:10136000121613061406440B9395F69587957795F8
:10137000679557954040FF23B9F71BC099270895FB
:10138000882351F49850D2F7872B762F652F542F4E
:10139000432F322F20E0B1F3121613061406440B2C
:1013A00088233AF09A95440F551F661F771F881FB0
:1013B000CAF755234AF4440F551F11F460FF04C0C7
:1013C0006F5F7F4F8F4F9F4F880F9695879597F947
:1013D000089597F99F6780E870E060E008959FEFB7
:1013E00080EC089590958095709560955095409506
:1013F000309521953F4F4F4F5F4F6F4F7F4F8F4F2E
:101400009F4F089500240A94161617061806090619
:10141000089500240A94121613061406050608956A
:10142000092E0394000C11F4882352F0BB0F40F4F2
:10143000BF2B11F460FF04C06F5F7F4F8F4F9F4F32
:10144000089557FD9058440F551F59F05F3F71F0B4
:101450004795880F97FB991F61F09F3F79F087951B
:101460000895121613061406551FF2CF4695F1DFA4
:1014700008C0161617061806991FF1CF8695710534
:10148000610508940895E894BB2766277727CB0168
:1014900097F90895DB018F939F930E945A0ABF9199
:1014A000AF91A29F800D911DA39F900DB29F900DB3
:1014B000112408950E94F20BA59F900DB49F900DEA
:1014C000A49F800D911D11240895B7FF0C945A0A12
:1014D0000E945A0A821B930B0895DF93CF931F93A8
:1014E0000F939A9DF02D219FF00D8B9DF00D8A9DFD
:1014F000E02DF10D039FF00D029FE00DF11D4E9DBB
:10150000E00DF11D5E9DF00D4F9DF00D7F936F93EB
:10151000BF92AF925F934F93D5010E94F20B8B0164
:10152000AC01D7010E94F20BEB01E80FF91FD601C5
:101530000E94BD0A2F913F91D6010E94F20BC60F67
:10154000D71FE81FF91FAF91BF910E94BD0A2F91CD
:101550003F910E94F20BC60FD71FE81FF91FD6015B
:101560000E94F20BE60FF71F9801BE01CF01112474
:101570000F911F91CF91DF9108950E94F20B460FBA
:10158000571FC81FD91F08F431960895689401C0E9
:10159000E894F92FF12B12F00C94FA0AA0E0B0E0D5
:1015A000E4EDFAE00C946C0B092E059422F40E94F1
:1015B000560B112392F4F0E80F26FFEFE094F0941D
:1015C00000951095B094C094D094A194BF0ACF0A0E
:1015D000DF0AEF0AFF0A0F0B1F0B0E94050B07FC27
:1015E0000E94560BCDB7DEB7ECE00C94880B6894E4
:1015F00001C0E8948F929F92CF93DF930E94050BD6
:10160000DF91CF919F908F90089588249924F401C1
:10161000E401B0E49F93AA279A158B049C04ED057E
:10162000FE05CF05D007A10798F4AD2FDC2FCF2FF3
:10163000FE2FE92D982C892E982F872F762F652F36
:10164000542F432F322F2227B85031F7BF9127C094
:101650001B2EBF91BB27220F331F441F551F661F30
:10166000771F881F991F881C991CEE1FFF1FCC1F16
:10167000DD1FAA1FBB1F8A149B04EC05FD05CE05C8
:10168000DF05A007B10748F08A189B08EC09FD099F
:10169000CE09DF09A00BB10B21601A94E1F62EF4FC
:1016A0009401AF01BE01CD01000C089560957095C5
:1016B0008095909530954095509521953F4F4F4F8F
:1016C0005F4F6F4F7F4F8F4F9F4F08952F923F92E5
:1016D0004F925F926F927F928F929F92AF92BF9242
:1016E000CF92DF92EF92FF920F931F93CF93DF93EE
:1016F000CDB7DEB7CA1BDB0B0FB6F894DEBF0FBE4B
:10170000CDBF09942A88398848885F846E847D8497
:101710008C849B84AA84B984C884DF80EE80FD8099
:101720000C811B81AA81B981CE0FD11D0FB6F8940F
:10173000DEBF0FBECDBFED0108950F93083090F0CE
:10174000982F872F762F652F542F432F322F222744
:101750000850F4CF220F331F441F551F661F771FF9
:10176000881F991F0A95B2F70F91089597FB10F8FB
:10177000169400080F93083098F00850232F342F48
:10178000452F562F672F782F892F902DF4CF059452
:1017900097958795779567955795479537952795A9
:1017A0000A95AAF70F9108952A0D3B1D4C1D5D1D4A
:1017B0006E1D7F1D801F911F08952A193B094C093A
:1017C0005D096E097F09800B910B08950024A7FD28
:1017D00000942A1730054005500560057005800506
:1017E00090050895A29FB001B39FC001A39F700D03
:1017F000811D1124911DB29F700D811D1124911D19
:101800000895EF920F931F93CF93DF93E80147FD65
:1018100002C034E001C034E1042E000C550B57FF28
:1018200003C0519541955109E32E022F242FAE019B
:101830000E94410ECE01DF91CF911F910F91EF9049
:101840000895FB01DC014150504048F001900D9299
:101850000020C9F701C01D9241505040E0F70895A3
:10186000AEE0B0E0E6E3FCE00C94740B0D891E8959
:101870008F89988D26E02C831A83098397FF02C0F5
:1018800080E090E801979E838D83AE01455E5F4FB7
:10189000698D7A8DCE0101960E94600C4D815E812A
:1018A00057FD0AC02F813885421753070CF49A015F
:1018B000F801E20FF31F10822E96E4E00C94900BD7
:1018C000ABE0B0E0E6E6FCE00C94660B6C017B015B
:1018D0008A01FC0117821682838181FFCCC1CE016F
:1018E00001963C01F6019381F70193FD859193FFE9
:1018F00081917F01882309F4BAC1853239F493FDBF
:10190000859193FF81917F01853229F4B60190E0A2
:101910000E948910E7CF912C212C312CFFE1F31587
:10192000D8F08B3279F038F4803279F08332A1F438
:10193000232D20611DC08D3261F0803369F4232D89
:10194000216016C0832D8260382EE32DE4603E2E88
:101950002AC0F32DF8601DC037FC2DC020ED280FE4
:101960002A3040F08E32B9F436FC81C1232D206438
:10197000322E19C036FE06C08AE0989E200D112432
:10198000922E11C0EAE02E9E200D1124222EF32D5E
:10199000F0623F2E08C08C3621F4832D8068382EEB
:1019A00002C0883641F4F70193FD859193FF819140
:1019B0007F018111B3CF982F9F7D9554933028F4E8
:1019C0000C5F1F4F9FE399830DC0833631F083373F
:1019D00071F0833509F059C021C0F80180818983F5
:1019E0000E5F1F4F88248394912C530113C028014C
:1019F000F2E04F0E511CF801A080B18036FE03C00A
:101A0000692D70E002C06FEF7FEFC5010E947E106C
:101A10004C018201F32DFF773F2E16C0280122E0F2
:101A2000420E511CF801A080B18036FE03C0692D22
:101A300070E002C06FEF7FEFC5010E9473104C0190
:101A4000F32DF0683F2E820133FC1BC0822D90E005
:101A500088169906B0F4B60180E290E00E948910E1
:101A60002A94F4CFF50137FC859137FE81915F010F
:101A7000B60190E00E94891021102A9421E0821A78
:101A800091088114910471F7E8C0843611F0893609
:101A900041F5F80137FE07C0608171818281938131
:101AA0000C5F1F4F08C060817181072E000C880BEE
:101AB000990B0E5F1F4FF32DFF763F2E97FF09C046
:101AC00090958095709561957F4F8F4F9F4FF068EF
:101AD0003F2E2AE030E0A3010E94C510882E861810
:101AE00045C0853731F4232D2F7EB22E2AE030E019
:101AF00025C0932D997FB92E8F36C1F018F4883503
:101B000079F0B5C0803719F0883721F0B0C0E92FDF
:101B1000E061BE2EB4FE0DC0FB2DF460BF2E09C0E7
:101B200034FE0AC0292F2660B22E06C028E030E01D
:101B300005C020E130E002C020E132E0F801B7FE4C
:101B400007C060817181828193810C5F1F4F06C045
:101B50006081718180E090E00E5F1F4FA3010E94C1
:101B6000C510882E8618FB2DFF773F2E36FE0DC040
:101B7000232D2E7FA22E891458F434FE0BC032FC84
:101B800009C0832D8E7EA82E05C0B82CA32C03C0BF
:101B9000B82C01C0B92CA4FE0FC0FE01E80DF11D48
:101BA0008081803321F49A2D997EA92E09C0A2FE4E
:101BB00006C0B394B39404C08A2D867809F0B39418
:101BC000A3FC11C0A0FE06C0B21488F4280C922C0D
:101BD0009B180EC0B21460F4B60180E290E00E943F
:101BE0008910B394F7CFB21418F42B1802C0982CB4
:101BF000212CA4FE10C0B60180E390E00E94891061
:101C0000A2FE17C0A1FC03C088E790E002C088E5EF
:101C100090E0B6010CC08A2D867859F0A1FE02C072
:101C20008BE201C080E2A7FC8DE2B60190E00E9449
:101C30008910891438F4B60180E390E00E9489107D
:101C40009A94F7CF8A94F301E80DF11D8081B601D3
:101C500090E00E9489108110F5CF222009F442CE35
:101C6000B60180E290E00E9489102A94F6CFF60136
:101C70008681978102C08FEF9FEF2B96E2E10C9453
:101C8000820BA9E0B0E0E7E4FEE00C946C0B6A0183
:101C9000122FB02E2BE3201720F0FF24F394F00E28
:101CA00002C02CE3F22E0F2D27E0AE014F5F5F4FF5
:101CB0000E949B0FBC014981842F8970813031F0D3
:101CC000E1FC06C0E0FE06C090E205C09DE203C054
:101CD0009BE201C090E05E2D507143FF3CC091112A
:101CE00002C083E001C084E0811718F4212F281B73
:101CF00001C020E051110BC0F601822F30E2882391
:101D000019F031938150FBCFC20ED11C20E09923F2
:101D100029F0D6019C93F60131966F01C601039616
:101D2000E2FE0AC03EE4D6013C9341E411964C9396
:101D3000119712963C9306C03EE6F601308341E6C9
:101D400041833283FC01322F40E2332309F442C045
:101D500041933150FACF42FF44C0911102C083E059
:101D600001C084E0811718F4212F281B01C020E056
:101D700051110BC0F601822F30E2882319F0319304
:101D80008150FBCFC20ED11C20E0992329F0D6014F
:101D90009C93F60131966F01C6010396E2FE0BC0DB
:101DA00039E4D6013C933EE411963C93119736E416
:101DB00012963C9307C039E6F60130833EE6318344
:101DC00036E63283FC01322F40E2332319F041938F
:101DD0003150FBCFFC01E20FF11D10828EEF9FEF1F
:101DE000A6C021E030E0911102C020E030E01616DC
:101DF00017061CF4FB01319602C0E1E0F0E02E0F63
:101E00003F1FBB2021F0EB2DF0E0319602C0E0E057
:101E1000F0E02E0F3F1FE12FF0E02E173F071CF4DC
:101E2000121B212F01C020E08E2D887159F4F6017C
:101E3000822F30E2882319F031938150FBCFC20EFC
:101E4000D11C20E0992329F0D6019C93F60131960C
:101E50006F0151110BC0F601822F90E3882319F016
:101E600091938150FBCFC20ED11C20E00F2D060FA5
:101E70009A81342F307144FF03C0913309F401502B
:101E8000101624F4093018F008E001C001E0AB019D
:101E900077FF02C040E050E0FB01E41BF50BA1E03E
:101EA000B0E0AC0FBD1FEA0FFB1F8EE2A82E4B0166
:101EB000801A91080B2D10E01195019511094F3FE3
:101EC000BFEF5B0721F4D601AC9211966D01641748
:101ED00075072CF08416950614F4818101C080E307
:101EE000415051093196D60111967D014017510795
:101EF00024F0D6018C936701E2CF6417750739F49B
:101F0000963320F4953319F4311101C081E3F601C1
:101F10008083F701822F90E2882319F091938150FA
:101F2000FBCFF701E20FF11D108280E090E02996CF
:101F3000ECE00C94880B283008F027E03327DA0116
:101F4000990F311D87FD916000966105710539F487
:101F500032602E5F3D9330E32A95E1F708959F3F6D
:101F600030F080387105610509F03C5F3C5F3D93BE
:101F7000913008F08068911DDF93CF931F930F93EA
:101F8000FF92EF92192F987F9695E92F9695969547
:101F9000E90FFF27EE53FF4F99273327EE24FF2445
:101FA000A701E70105900894079428F4360FE71E6F
:101FB000F81E491F511D660F771F881F991F069431
:101FC000A1F70590079428F4E70EF81E491F561F45
:101FD000C11D770F881F991F661F0694A1F70590F2
:101FE000079428F4F80E491F561FC71FD11D880FEC
:101FF000991F661F771F0694A1F70590079420F498
:10200000490F561FC71FD81F990F661F771F881FBC
:102010000694A9F784911095177041F0D695C7954D
:1020200057954795F794E7941A95C1F7E8E6F0E0DD
:1020300068941590159135916591959105907FE281
:102040007395E118F10A430B560BC90BD009C0F781
:10205000E10CF11E431F561FC91FD01D7EF47033C3
:1020600011F48A95E6CFE894015030F0080F0AF495
:102070000027021708F4202F2395022F7A3328F027
:1020800079E37D932A95E9F710C07D932A9589F627
:10209000069497956795379517951794E118F10A67
:1020A000430B560BC90BD00998F023957E9173957D
:1020B0007A3308F070E37C932013B8F77E91706157
:1020C0007D9330F0839571E37D9370E32A95E1F77A
:1020D0001124EF90FF900F911F91CF91DF919927DD
:1020E00087FD90950895FC010590615070400110A6
:1020F000D8F7809590958E0F9F1F0895FC01615031
:10210000704001900110D8F7809590958E0F9F1F19
:1021100008950F931F93CF93DF93FB01238121FD3C
:1021200003C08FEF9FEF2CC022FF16C0468157815E
:10213000248135814217530744F4A081B1819D0168
:102140002F5F3F4F318320838C93268137812F5F10
:102150003F4F3783268314C08B01EC01FB010084C1
:10216000F185E02D0995892BE1F6D80116968D9120
:102170009C911797019617969C938E931697CE0174
:10218000DF91CF911F910F910895FA01AA2728306E
:1021900051F1203181F1E8946F936E7F6E5F7F4F34
:1021A0008F4F9F4FAF4FB1E03ED0B4E03CD0670FB0
:1021B000781F891F9A1FA11D680F791F8A1F911D03
:1021C000A11D6A0F711D811D911DA11D20D009F453
:1021D00068943F912AE0269F11243019305D319395
:1021E000DEF6CF010895462F4770405D4193B3E07E
:1021F0000FD0C9F7F6CF462F4F70405D4A3318F025
:10220000495D31FD4052419302D0A9F7EACFB4E0D5
:10221000A6959795879577956795BA95C9F700978D
:102220006105710508959B01AC010A2E069457952E
:10223000479537952795BA95C9F7620F731F841F85
:0A224000951FA01D0895F894FFCF2C
:10224A007663616C2054313D25752054323D2564F6
:10225A002054333D25642050313D25752050323DB0
:10226A0025642050333D25640D0A00424D50323812
:10227A0030206E6F7420666F756E640D0A00636F8E
:10228A006566662072656164206661696C0D0A0084
:10229A00424D5032383020403078253032580D0ABD
:1022AA0000726177543D256C6420726177503D2538
:1022BA006C640D0A00543D252E32664320503D259C
:1022CA002E326650610D0A000D0A424D50323830E6
:1022DA0020415652207374617274696E672E2E2ED5
:1022EA000D0A00424D50323830202D2041565200FE
:1022FA00496E69742E2E2E00424D503238302069B4
:10230A006E6974206661696C65640D0A00424D50FD
:10231A00323830206E6F7420666F756E64004368C1
:10232A0065636B20776972696E6700526561642024
:10233A006572726F720D0A00526561642066616986
:10234A006C656400543A25734320503A25736850EB
:10235A006100543D257320432C20503D257320688D
:10236A0050610D0A0043202D2D2D2D2D2D2D2D2DA3
:06237A002D2068506100F7
:00000001FF
