S0110000375F54495453484C452E7372656360
S11300000C9434000C943E000C943E000C943E007E
S11300100C943E000C943E000C943E000C94520050
S11300200C943E000C943E000C943E000C94400052
S11300300C943E000C943E000C943E000C943E0044
S11300400C943E000C943E000C943E000C943E0034
S11300500C943E000C943E000C943E000C943E0024
S11300600C943E000C943E0011241FBECFEFD8E048
S1130070DEBFCDBF0E9464000C948B000C94000082
S11300801F920F920FB60F9211248F939F9395B1E5
S113009082E0892785B99F918F910F900FBE0F90B1
S11300A01F9018951F920F920FB60F9211248F93E1
S11300B09F9395B184E0892785B99F918F910F9083
S11300C00FBE0F901F90189584B1866084B9E1E843
S11300D0F0E080818D60808381E19AE790938900CC
S11300E080938800EFE6F0E0808182608083E0EB1B
S11300F0F0E0808182608083E1EBF0E080818760C2
S113010080838CE78093B300E0E7F0E08081826035
S10D011080837894FFCFF894FFCFAA
S9030000FC
