S01F000054696D65725F44656C617946756374696F6E204C6976652E737265632E
S11300000C9434000C943E000C943E000C943E007E
S11300100C943E000C943E000C943E000C943E0064
S11300200C943E000C943E000C943E000C943E0054
S11300300C943E000C943E000C943E000C943E0044
S11300400C943E000C943E000C943E000C943E0034
S11300500C943E000C943E000C943E000C943E0024
S11300600C943E000C943E0011241FBECFEFD8E048
S1130070DEBFCDBF0E9453000C945D000C940000C1
S1130080E1E8F0E080818560808310928500109221
S11300908400809184009091850089309D43C8F349
S11300A010928100089584B1806284B995B180E290
S11100B0892785B90E944000F9CFF894FFCF4C
S9030000FC
