:100000000C9434000C9451000C9451000C94510049
:100010000C9451000C9451000C9451000C9451001C
:100020000C9451000C9451000C9451000C9451000C
:100030000C9451000C9451000C9451000C945100FC
:100040000C9451000C9451000C9451000C945100EC
:100050000C9451000C9451000C9451000C945100DC
:100060000C9451000C94510011241FBECFEFD8E026
:10007000DEBFCDBF11E0A0E0B1E0E8ECFDE002C0E2
:1000800005900D92A23AB107D9F721E0A2EAB1E0BA
:1000900001C01D92AE3BB207E1F70E94B3030C947E
:1000A000E2060C94000084B18C6284B924982A9AE8
:1000B00081E58CBD08958EBD0DB407FEFDCF8EB5D4
:1000C00008952A9880680E945B0080E00E945B008F
:1000D0002A9A0895FF920F931F93CF93DF93F62EE2
:1000E000072F142F2A9880680E945B00CF2DD02FF5
:1000F000CE01810F911D8C01C017D10729F080E03E
:100100000E945B008993F8CF2A9ADF91CF911F91CB
:100110000F91FF90089580ED0E94610091E0883575
:1001200009F090E0892F0895CF93DF93CDB7DEB724
:1001300068970FB6F894DEBF0FBECDBF48E1BE0191
:100140006F5F7F4F88E80E946A0089819A8190934F
:10015000A9018093A8018B819C819093AB0180932E
:10016000AA018D819E819093BB018093BA018F81FA
:1001700098859093B3018093B20189859A85909375
:10018000AD018093AC018B859C859093B5018093E4
:10019000B4018D859E859093AF018093AE018F85CC
:1001A00098899093B1018093B00189899A8990933D
:1001B000BD018093BC018B899C899093A70180939A
:1001C000A6018D899E899093B7018093B6018F898E
:1001D000988D9093B9018093B80168960FB6F89402
:1001E000DEBF0FBECDBFDF91CF910895CF93C62F55
:1001F0002A988F770E945B008C2F0E945B002A9ABE
:10020000CF9108952FEF81EE94E0215080409040EF
:10021000E1F700C000000E94940060EA85EF0E94B0
:10022000F60067EB84EF0C94F6008F929F92AF92EA
:10023000BF92CF92DF92EF92FF920F931F930091A4
:10024000A8011091A90120E030E06B017C0144E09D
:10025000F594E794D794C7944A95D1F7C01AD10A78
:10026000E20AF30ADC01CB0153E0B595A795979517
:1002700087955A95D1F7000F111F221F331F4C018C
:100280005D01801A910AA20AB30AA5019401A09106
:10029000AA01B091AB010E94E3044B015C017BE039
:1002A000B594A794979487947A95D1F7A70196016E
:1002B000C701B6010E94A9049B01AC01ECE0559571
:1002C000479537952795EA95D1F7A091BA01B09156
:1002D000BB010E94E304DC01CB01FEE0B595A795CC
:1002E00097958795FA95D1F7A5019401280F391FA5
:1002F0004A1F5B1F2093A2013093A3014093A401E6
:100300005093A501A5E0B0E00E94D804DC01CB0128
:1003100080589F4FAF4FBF4F692F7A2F8B2F992750
:1003200087FD9A951F910F91FF90EF90DF90CF90EE
:10033000BF90AF909F908F9008952F923F924F92D1
:100340005F926F927F928F929F92AF92BF92CF9265
:10035000DF92EF92FF920F931F93CF93DF93CDB76E
:10036000DEB76B970FB6F894DEBF0FBECDBF6E8BB6
:100370007F8B888F998F8091A2019091A301A0918A
:10038000A401B091A5016C017D01FF0CCC08DC2C0F
:1003900076019C01AD016C2D7C2D8C2D9C2D345F44
:1003A00041405109610971098109910929873A87F9
:1003B0004B87652E762E872E982E9B8F5901C42E43
:1003C000D52EE62EF72E082F192F0E94EB04322E81
:1003D000232E488B598B6A8B7B8B8C8B9D8B30911A
:1003E000AD012091AC01932F990F990B492F592FF3
:1003F000692F792F892F0E94EB040CE00E941B06C5
:1004000029833C874A8F5D876E877F87582E492EC8
:100410003091B5012091B401932F990F990BA32C22
:10042000B22CC888D988EA88FB880C891D89492F95
:10043000592F692F792F892F0E94EB0408E00E9421
:100440003406A980BC84CA8CDD84EE84FF84052D2B
:10045000142D0E94520670588F4F9F4FE091B201A9
:10046000F091B3015F01C12CD12CE12CF12C87015B
:10047000E983BA82CB82DC82ED82FE820F83188709
:10048000C12CD12CE12CF12C00E010E00E94EB04F7
:1004900001E20E9434062A8F532E49835C876D87C0
:1004A0007E878F87492EA0E00E94640609F438C138
:1004B0003091BD012091BC01932F990F990BA32C72
:1004C000B22CC888D988EA88FB880C891D89492FF5
:1004D000592F692F792F892F0E94EB041901488B1E
:1004E000598B6A8B7B8B8C8B9D8B3091B1012091CA
:1004F000B001932F990F990BA984BA84CB84D62C81
:10050000E72CF82C092D1B8D492F592F692F792F96
:10051000892F0E94EB0401E10E941B065101C8884B
:10052000D988EA88FB880C891D890E9452065901E6
:100530006A017B01382E192F80E090E0A0E1B0E045
:100540002E893F89488D598D821B930BA40BB50BC7
:100550003C014D01990C6608762C43019C01AD01CC
:10056000662D762D862D962D0FE10E941B06722E8C
:10057000832E942E5987B62FA72FF82FE92F30916D
:10058000AF012091AE01932F990F990B492F592F4D
:10059000692F792F892F03E20E941B06032D0E94E9
:1005A000520659016A017B018C01272D382D492DF6
:1005B00059856B2F7A2F8F2F9E2F0E945B06E5E3C4
:1005C000AE2EFCE0BF2EC12CD12CE12CF12C00E092
:1005D00010E00E94EB04AA8CB52CC980DC84ED8469
:1005E000FE840F85142D0E9446052F873E8749877C
:1005F0005A876B8779838C879D870DE00E9434062C
:10060000922E832E742E652E562E472E382E292E8E
:100610003091B9012091B801932F990F990BA92C12
:10062000B82CC72CD62CE52CF42C032D122D492FD9
:10063000592F692F792F892F0E94EB040E94EB0418
:1006400009E10E943406AF84BE84C984DA84EB8455
:10065000F9800C851D850E94520619012A013B0173
:100660004C013091B7012091B601932F990F990B4E
:10067000492F592F692F792F892F0E94EB0403E10D
:100680000E94340659016A017B018C019101A2018B
:10069000B301C4010E94520608E00E9434065901C9
:1006A0006A017B01E82F192F3091A7012091A60143
:1006B000932F990F990B492F592F692F792F892F34
:1006C00004E00E941B060E2F0E945206122F39874B
:1006D0004983B52FF62FE72FF82E092FA0E00E94AF
:1006E000640684F421503F4F4F4F5F4F6F4F7F4F51
:1006F0008F4F9F4F122F39874983B52FF62FE72F42
:10070000F82E092F212F398549815B2F6F2F7E2FDE
:100710008F2D902F08E00E943406B901CA0104C051
:1007200060E070E080E090E06B960FB6F894DEBF7A
:100730000FBECDBFDF91CF911F910F91FF90EF9032
:10074000DF90CF90BF90AF909F908F907F906F90F1
:100750005F904F903F902F900895579A08955F9A19
:1007600008955F980895CF93DF9300D000D000D014
:10077000CDB7DEB70E94AD030E94B1030E946D04A5
:1007800080E091E00E9480040E9453000E948B0050
:10079000882371F083E291E00E9480040E94AF03FD
:1007A0000E940201F4E68F2E912CA12CB12C07C0DF
:1007B0008DE491E00E9480040E94B103FFCF46E0E7
:1007C000BE016F5F7F4F87EF0E946A00C980D12C06
:1007D000E12CF12C8CE0CC0CDD1CEE1CFF1C8A956E
:1007E000D1F78A8190E0A0E0B0E024E0880F991F63
:1007F000AA1FBB1F2A95D1F7C82AD92AEA2AFB2AA1
:100800008B8182958F70C82A6C81862F90E0A0E042
:10081000B0E0AC01BD013CE0440F551F661F771FDF
:100820003A95D1F78D8190E0A0E0B0E0E4E0880F48
:10083000991FAA1FBB1FEA95D1F7842B952BA62BD6
:10084000B72B2E8122952F70BC01CD01622B0E9407
:1008500015012B013C01C701B6010E949D016B01EE
:100860007C018DE791E00E948004C301B201A501E3
:1008700094010E94B9042B013C01CA01B9010E94F4
:100880008C048EE20E947904C301B2010E948C04A0
:1008900086E891E00E948004C701B601A501940199
:1008A0000E94B9046B017C01CA01B9010E948C0449
:1008B0008EE20E947904C701B6010E948C048AE985
:1008C00091E00E9480042FEF87EA91E6215080405A
:1008D0009040E1F700C0000072CF1092C50087E69B
:1008E0008093C40088E08093C10086E08093C200BA
:1008F00008959091C00095FFFCCF8093C6000895A5
:10090000CF93DF93EC018991882319F00E94790439
:10091000FACFDF91CF910895CF93DF93CDB7DEB7B4
:100920002C970FB6F894DEBF0FBECDBF2AE0AE0104
:100930004F5F5F4F0E94A106CE0101960E94800486
:100940002C960FB6F894DEBF0FBECDBFDF91CF91CE
:100950000895DB018F939F930E94D804BF91AF91BC
:10096000A29F800D911DA39F900DB29F900D112409
:100970000895052E97FB1EF400940E94D00457FDA5
:1009800007D00E94700607FC03D04EF40C94D004EC
:1009900050954095309521953F4F4F4F5F4F0895AB
:1009A00090958095709561957F4F8F4F9F4F0895DB
:1009B0000E949206A59F900DB49F900DA49F800D5C
:1009C000911D11240895B7FF0C94D8040E94D804F7
:1009D000821B930B0895DF93CF931F930F939A9DE0
:1009E000F02D219FF00D8B9DF00D8A9DE02DF10DD6
:1009F000039FF00D029FE00DF11D4E9DE00DF11DD6
:100A00005E9DF00D4F9DF00D7F936F93BF92AF925F
:100A10005F934F93D5010E9492068B01AC01D701E1
:100A20000E949206EB01E80FF91FD6010E943B05D8
:100A30002F913F91D6010E949206C60FD71FE81F43
:100A4000F91FAF91BF910E943B052F913F910E94EA
:100A50009206C60FD71FE81FF91FD6010E94920603
:100A6000E60FF71F9801BE01CF0111240F911F91CE
:100A7000CF91DF9108950E949206460F571FC81F1D
:100A8000D91F08F431960895689401C0E894F92FAD
:100A9000F12B12F00C947805A0E0B0E0E2E5F5E06F
:100AA0000C94EA05092E059422F40E94D405112322
:100AB00092F4F0E80F26FFEFE094F0940095109583
:100AC000B094C094D094A194BF0ACF0ADF0AEF0A71
:100AD000FF0A0F0B1F0B0E94830507FC0E94D40521
:100AE000CDB7DEB7ECE00C940606689401C0E8943C
:100AF0008F929F92CF93DF930E948305DF91CF91D6
:100B00009F908F90089588249924F401E401B0E423
:100B10009F93AA279A158B049C04ED05FE05CF052B
:100B2000D007A10798F4AD2FDC2FCF2FFE2FE92D92
:100B3000982C892E982F872F762F652F542F432F8F
:100B4000322F2227B85031F7BF9127C01B2EBF91FB
:100B5000BB27220F331F441F551F661F771F881F97
:100B6000991F881C991CEE1FFF1FCC1FDD1FAA1F99
:100B7000BB1F8A149B04EC05FD05CE05DF05A0070D
:100B8000B10748F08A189B08EC09FD09CE09DF0976
:100B9000A00BB10B21601A94E1F62EF49401AF0181
:100BA000BE01CD01000C08956095709580959095DB
:100BB00030954095509521953F4F4F4F5F4F6F4F68
:100BC0007F4F8F4F9F4F08952F923F924F925F928A
:100BD0006F927F928F929F92AF92BF92CF92DF924D
:100BE000EF92FF920F931F93CF93DF93CDB7DEB7B2
:100BF000CA1BDB0B0FB6F894DEBF0FBECDBF099446
:100C00002A88398848885F846E847D848C849B849C
:100C1000AA84B984C884DF80EE80FD800C811B81AA
:100C2000AA81B981CE0FD11D0FB6F894DEBF0FBED9
:100C3000CDBFED0108950F93083090F0982F872FC6
:100C4000762F652F542F432F322F22270850F4CFB1
:100C5000220F331F441F551F661F771F881F991FC0
:100C60000A95B2F70F91089597FB10F816940008B3
:100C70000F93083098F00850232F342F452F562F0C
:100C8000672F782F892F902DF4CF0594979587950E
:100C90007795679557954795379527950A95AAF7BC
:100CA0000F9108952A0D3B1D4C1D5D1D6E1D7F1D6E
:100CB000801F911F08952A193B094C095D096E098F
:100CC0007F09800B910B08950024A7FD00942A173B
:100CD00030054005500560057005800590050895B4
:100CE000A1E21A2EAA1BBB1BFD010DC0AA1FBB1F30
:100CF000EE1FFF1FA217B307E407F50720F0A21BA2
:100D0000B30BE40BF50B661F771F881F991F1A940E
:100D100069F760957095809590959B01AC01BD0138
:100D2000CF010895A29FB001B39FC001A39F700D92
:100D3000811D1124911DB29F700D811D1124911DE3
:100D40000895BB272A3051F4992342F4BDE29095CF
:100D50008095709561957F4F8F4F9F4F0C94B10692
:100D6000BB27FA01A62F6217710581059105330B88
:100D700030FB66F0AA27660F771F881F991FAA1FEE
:100D8000A21710F0A21B63953850A9F7A05DAA33F3
:100D900008F0A95DA19336F7B111B1931082CA0191
:100DA0000C94D206DC01FC01672F71917723E1F7E7
:100DB000329704C07C916D9370836291AE17BF0728
:080DC000C8F30895F894FFCF79
:100DC8005374617274696E672053504920636F6E63
:100DD8006E656374696F6E20636865636B2E2E2E73
:100DE8000D0A00537563636573733A20424D5032A0
:100DF800383020636F6E6E656374696F6E2065733B
:100E08007461626C69736865642E0D0A00457272BC
:100E18006F723A20424D50323830206E6F7420661F
:100E28006F756E64206F7220636F6E6E6563746990
:100E38006F6E206661696C65642E0D0A002D2D5455
:100E4800656D703A2000204320202D2D2041205030
:100E5800726573737572653A2000687061200D0AB7
:020E6800000088
:00000001FF
