:100000000C945A000C946C000C946C000C946C00D2
:100010000C946C000C946C000C946C000C946C00B0
:100020000C946C000C946C000C946C000C946C00A0
:100030000C946C000C946C000C946C000C946C0090
:100040000C946E000C946C000C946C000C946C007E
:100050000C946C000C946C000C946C000C946C0070
:100060000C946C000C946C000C946C000C946C0060
:100070000C946C000C946C000C946C000C946C0050
:100080000C946C000C946C000C946C000C946C0040
:100090000C946C000C946C000C946C000C946C0030
:1000A0000C946C000C946C000C946C000C946C0020
:1000B0000C946C0011241FBECFEFD8E0DEBFCDBF83
:1000C00021E0A0E0B1E001C01D92A230B207E1F74B
:1000D0000E9496000C94A4000C9400001F920F92B2
:1000E0000FB60F9211242F938F939F93809100014D
:1000F00090910101019690930101809300018091FC
:10010000000190910101823D934040F095B180E261
:10011000892785B910920101109200019F918F915A
:100120002F910F900FBE0F901F901895789484B167
:10013000806284B914BC85B5836085BDEEE6F0E0CD
:0C014000808181608083FFCFF894FFCFA6
:00000001FF
