S0220000547261696E5F616E696D6174696F6E5F6F6E5F5042305F5042372E7372656360
S11300000C9434000C943E000C943E000C943E007E
S11300100C943E000C943E000C943E000C943E0064
S11300200C943E000C943E000C943E000C943E0054
S11300300C943E000C943E000C943E000C943E0044
S11300400C943E000C943E000C943E000C943E0034
S11300500C943E000C943E000C943E000C943E0024
S11300600C943E000C943E0011241FBECFEFD8E048
S1130070DEBFCDBF0E9440000C9452000C940000DF
S11300808FEF84B981E001C081E085B92FEF33ECB3
S113009099E0215030409040E1F700C00000880F03
S10B00A099F3F3CFF894FFCFAC
S9030000FC
